{
  "_format": "hh-sol-artifact-1",
  "contractName": "Crowdfunding_Maryam",
  "sourceName": "contracts/Crowdfunding_Maryam.sol",
  "abi": [
    {
      "inputs": [
        {
          "internalType": "address",
          "name": "_kycRegistryAddress",
          "type": "address"
        }
      ],
      "stateMutability": "nonpayable",
      "type": "constructor"
    },
    {
      "anonymous": false,
      "inputs": [
        {
          "indexed": true,
          "internalType": "uint256",
          "name": "campaignId",
          "type": "uint256"
        }
      ],
      "name": "CampaignCompleted",
      "type": "event"
    },
    {
      "anonymous": false,
      "inputs": [
        {
          "indexed": true,
          "internalType": "uint256",
          "name": "campaignId",
          "type": "uint256"
        },
        {
          "indexed": false,
          "internalType": "string",
          "name": "title",
          "type": "string"
        },
        {
          "indexed": true,
          "internalType": "address",
          "name": "creator",
          "type": "address"
        },
        {
          "indexed": false,
          "internalType": "uint256",
          "name": "goalAmount",
          "type": "uint256"
        }
      ],
      "name": "CampaignCreated",
      "type": "event"
    },
    {
      "anonymous": false,
      "inputs": [
        {
          "indexed": true,
          "internalType": "uint256",
          "name": "campaignId",
          "type": "uint256"
        },
        {
          "indexed": true,
          "internalType": "address",
          "name": "contributor",
          "type": "address"
        },
        {
          "indexed": false,
          "internalType": "uint256",
          "name": "amount",
          "type": "uint256"
        }
      ],
      "name": "ContributionMade",
      "type": "event"
    },
    {
      "anonymous": false,
      "inputs": [
        {
          "indexed": true,
          "internalType": "uint256",
          "name": "campaignId",
          "type": "uint256"
        },
        {
          "indexed": true,
          "internalType": "address",
          "name": "creator",
          "type": "address"
        },
        {
          "indexed": false,
          "internalType": "uint256",
          "name": "amount",
          "type": "uint256"
        }
      ],
      "name": "FundsWithdrawn",
      "type": "event"
    },
    {
      "inputs": [
        {
          "internalType": "uint256",
          "name": "",
          "type": "uint256"
        },
        {
          "internalType": "uint256",
          "name": "",
          "type": "uint256"
        }
      ],
      "name": "campaignContributions",
      "outputs": [
        {
          "internalType": "address",
          "name": "contributor",
          "type": "address"
        },
        {
          "internalType": "uint256",
          "name": "amount",
          "type": "uint256"
        },
        {
          "internalType": "uint256",
          "name": "timestamp",
          "type": "uint256"
        }
      ],
      "stateMutability": "view",
      "type": "function"
    },
    {
      "inputs": [],
      "name": "campaignCount",
      "outputs": [
        {
          "internalType": "uint256",
          "name": "",
          "type": "uint256"
        }
      ],
      "stateMutability": "view",
      "type": "function"
    },
    {
      "inputs": [
        {
          "internalType": "uint256",
          "name": "",
          "type": "uint256"
        }
      ],
      "name": "campaigns",
      "outputs": [
        {
          "internalType": "uint256",
          "name": "id",
          "type": "uint256"
        },
        {
          "internalType": "string",
          "name": "title",
          "type": "string"
        },
        {
          "internalType": "string",
          "name": "description",
          "type": "string"
        },
        {
          "internalType": "address payable",
          "name": "creator",
          "type": "address"
        },
        {
          "internalType": "uint256",
          "name": "goalAmount",
          "type": "uint256"
        },
        {
          "internalType": "uint256",
          "name": "fundsRaised",
          "type": "uint256"
        },
        {
          "internalType": "enum Crowdfunding_Maryam.CampaignStatus",
          "name": "status",
          "type": "uint8"
        },
        {
          "internalType": "uint256",
          "name": "createdAt",
          "type": "uint256"
        },
        {
          "internalType": "bool",
          "name": "exists",
          "type": "bool"
        }
      ],
      "stateMutability": "view",
      "type": "function"
    },
    {
      "inputs": [
        {
          "internalType": "uint256",
          "name": "_campaignId",
          "type": "uint256"
        }
      ],
      "name": "contribute",
      "outputs": [],
      "stateMutability": "payable",
      "type": "function"
    },
    {
      "inputs": [
        {
          "internalType": "string",
          "name": "_title",
          "type": "string"
        },
        {
          "internalType": "string",
          "name": "_description",
          "type": "string"
        },
        {
          "internalType": "uint256",
          "name": "_goalAmount",
          "type": "uint256"
        }
      ],
      "name": "createCampaign",
      "outputs": [],
      "stateMutability": "nonpayable",
      "type": "function"
    },
    {
      "inputs": [],
      "name": "getAllCampaigns",
      "outputs": [
        {
          "components": [
            {
              "internalType": "uint256",
              "name": "id",
              "type": "uint256"
            },
            {
              "internalType": "string",
              "name": "title",
              "type": "string"
            },
            {
              "internalType": "string",
              "name": "description",
              "type": "string"
            },
            {
              "internalType": "address payable",
              "name": "creator",
              "type": "address"
            },
            {
              "internalType": "uint256",
              "name": "goalAmount",
              "type": "uint256"
            },
            {
              "internalType": "uint256",
              "name": "fundsRaised",
              "type": "uint256"
            },
            {
              "internalType": "enum Crowdfunding_Maryam.CampaignStatus",
              "name": "status",
              "type": "uint8"
            },
            {
              "internalType": "uint256",
              "name": "createdAt",
              "type": "uint256"
            },
            {
              "internalType": "bool",
              "name": "exists",
              "type": "bool"
            }
          ],
          "internalType": "struct Crowdfunding_Maryam.Campaign[]",
          "name": "",
          "type": "tuple[]"
        }
      ],
      "stateMutability": "view",
      "type": "function"
    },
    {
      "inputs": [
        {
          "internalType": "uint256",
          "name": "_campaignId",
          "type": "uint256"
        }
      ],
      "name": "getCampaign",
      "outputs": [
        {
          "internalType": "uint256",
          "name": "id",
          "type": "uint256"
        },
        {
          "internalType": "string",
          "name": "title",
          "type": "string"
        },
        {
          "internalType": "string",
          "name": "description",
          "type": "string"
        },
        {
          "internalType": "address",
          "name": "creator",
          "type": "address"
        },
        {
          "internalType": "uint256",
          "name": "goalAmount",
          "type": "uint256"
        },
        {
          "internalType": "uint256",
          "name": "fundsRaised",
          "type": "uint256"
        },
        {
          "internalType": "enum Crowdfunding_Maryam.CampaignStatus",
          "name": "status",
          "type": "uint8"
        },
        {
          "internalType": "uint256",
          "name": "createdAt",
          "type": "uint256"
        }
      ],
      "stateMutability": "view",
      "type": "function"
    },
    {
      "inputs": [
        {
          "internalType": "uint256",
          "name": "_campaignId",
          "type": "uint256"
        }
      ],
      "name": "getCampaignContributions",
      "outputs": [
        {
          "components": [
            {
              "internalType": "address",
              "name": "contributor",
              "type": "address"
            },
            {
              "internalType": "uint256",
              "name": "amount",
              "type": "uint256"
            },
            {
              "internalType": "uint256",
              "name": "timestamp",
              "type": "uint256"
            }
          ],
          "internalType": "struct Crowdfunding_Maryam.Contribution[]",
          "name": "",
          "type": "tuple[]"
        }
      ],
      "stateMutability": "view",
      "type": "function"
    },
    {
      "inputs": [],
      "name": "getTotalCampaigns",
      "outputs": [
        {
          "internalType": "uint256",
          "name": "",
          "type": "uint256"
        }
      ],
      "stateMutability": "view",
      "type": "function"
    },
    {
      "inputs": [
        {
          "internalType": "uint256",
          "name": "_campaignId",
          "type": "uint256"
        },
        {
          "internalType": "address",
          "name": "_user",
          "type": "address"
        }
      ],
      "name": "getUserContribution",
      "outputs": [
        {
          "internalType": "uint256",
          "name": "",
          "type": "uint256"
        }
      ],
      "stateMutability": "view",
      "type": "function"
    },
    {
      "inputs": [],
      "name": "kycRegistry",
      "outputs": [
        {
          "internalType": "contract IKYCRegistry",
          "name": "",
          "type": "address"
        }
      ],
      "stateMutability": "view",
      "type": "function"
    },
    {
      "inputs": [
        {
          "internalType": "uint256",
          "name": "",
          "type": "uint256"
        },
        {
          "internalType": "address",
          "name": "",
          "type": "address"
        }
      ],
      "name": "userContributions",
      "outputs": [
        {
          "internalType": "uint256",
          "name": "",
          "type": "uint256"
        }
      ],
      "stateMutability": "view",
      "type": "function"
    },
    {
      "inputs": [
        {
          "internalType": "uint256",
          "name": "_campaignId",
          "type": "uint256"
        }
      ],
      "name": "withdrawFunds",
      "outputs": [],
      "stateMutability": "nonpayable",
      "type": "function"
    }
  ],
  "bytecode": "0x608060405234801561001057600080fd5b50604051611ae9380380611ae983398101604081905261002f91610054565b600080546001600160a01b0319166001600160a01b0392909216919091179055610084565b60006020828403121561006657600080fd5b81516001600160a01b038116811461007d57600080fd5b9392505050565b611a56806100936000396000f3fe6080604052600436106100c25760003560e01c80635598f8cc1161007f578063c1cbbca711610059578063c1cbbca71461024f578063d3b0c32c14610262578063ed54890d1461028f578063ffa56a57146102c757600080fd5b80635598f8cc146101e35780637274e30d1461021757806386cdf6041461022d57600080fd5b8063141961bc146100c7578063155dd5ee1461010557806316f43dd4146101275780634b155b97146101465780635117e3381461017e578063539157bd1461019e575b600080fd5b3480156100d357600080fd5b506100e76100e236600461138e565b6102e7565b6040516100fc99989796959493929190611425565b60405180910390f35b34801561011157600080fd5b5061012561012036600461138e565b610450565b005b34801561013357600080fd5b506002545b6040519081526020016100fc565b34801561015257600080fd5b50600054610166906001600160a01b031681565b6040516001600160a01b0390911681526020016100fc565b34801561018a57600080fd5b506101386101993660046114b6565b6106d1565b3480156101aa57600080fd5b506101be6101b93660046114e6565b6106fb565b604080516001600160a01b0390941684526020840192909252908201526060016100fc565b3480156101ef57600080fd5b506102036101fe36600461138e565b610747565b6040516100fc989796959493929190611508565b34801561022357600080fd5b5061013860025481565b34801561023957600080fd5b50610242610996565b6040516100fc9190611577565b61012561025d36600461138e565b610bf6565b34801561026e57600080fd5b5061028261027d36600461138e565b610e8f565b6040516100fc9190611662565b34801561029b57600080fd5b506101386102aa3660046114b6565b600460209081526000928352604080842090915290825290205481565b3480156102d357600080fd5b506101256102e2366004611767565b610f4f565b600160208190526000918252604090912080549181018054610308906117d4565b80601f0160208091040260200160405190810160405280929190818152602001828054610334906117d4565b80156103815780601f1061035657610100808354040283529160200191610381565b820191906000526020600020905b81548152906001019060200180831161036457829003601f168201915b505050505090806002018054610396906117d4565b80601f01602080910402602001604051908101604052809291908181526020018280546103c2906117d4565b801561040f5780601f106103e45761010080835404028352916020019161040f565b820191906000526020600020905b8154815290600101906020018083116103f257829003601f168201915b5050506003840154600485015460058601546006870154600788015460089098015496976001600160a01b039094169692955090935060ff90811692911689565b600081815260016020526040902060080154819060ff1661048c5760405162461bcd60e51b815260040161048390611808565b60405180910390fd5b60008281526001602052604090206003015482906001600160a01b0316331461050d5760405162461bcd60e51b815260206004820152602d60248201527f4f6e6c792063616d706169676e2063726561746f722063616e20706572666f7260448201526c36903a3434b99030b1ba34b7b760991b6064820152608401610483565b600083815260016020819052604090912090600682015460ff166002811115610538576105386113ed565b146105945760405162461bcd60e51b815260206004820152602660248201527f43616d706169676e206d75737420626520636f6d706c6574656420746f20776960448201526574686472617760d01b6064820152608401610483565b6005810154806105dd5760405162461bcd60e51b81526020600482015260146024820152734e6f2066756e647320746f20776974686472617760601b6044820152606401610483565b60068201805460ff1916600217905560038201546040516000916001600160a01b03169083908381818185875af1925050503d806000811461063b576040519150601f19603f3d011682016040523d82523d6000602084013e610640565b606091505b50509050806106835760405162461bcd60e51b815260206004820152600f60248201526e151c985b9cd9995c8819985a5b1959608a1b6044820152606401610483565b60038301546040518381526001600160a01b039091169087907ff440aec6b52895984d061d622e6edeba6210f7c3e059be920663140c084560d79060200160405180910390a3505050505050565b60008281526004602090815260408083206001600160a01b03851684529091529020545b92915050565b6003602052816000526040600020818154811061071757600080fd5b60009182526020909120600390910201805460018201546002909201546001600160a01b03909116935090915083565b600081815260016020526040812060080154606090819083908190819081908190899060ff166107895760405162461bcd60e51b815260040161048390611808565b60008a8152600160208181526040808420815161012081019092528054825292830180549193928401916107bc906117d4565b80601f01602080910402602001604051908101604052809291908181526020018280546107e8906117d4565b80156108355780601f1061080a57610100808354040283529160200191610835565b820191906000526020600020905b81548152906001019060200180831161081857829003601f168201915b5050505050815260200160028201805461084e906117d4565b80601f016020809104026020016040519081016040528092919081815260200182805461087a906117d4565b80156108c75780601f1061089c576101008083540402835291602001916108c7565b820191906000526020600020905b8154815290600101906020018083116108aa57829003601f168201915b505050918352505060038201546001600160a01b031660208201526004820154604082015260058201546060820152600682015460809091019060ff166002811115610915576109156113ed565b6002811115610926576109266113ed565b8152602001600782015481526020016008820160009054906101000a900460ff1615151515815250509050806000015181602001518260400151836060015184608001518560a001518660c001518760e00151995099509950995099509950995099505050919395975091939597565b6060600060025467ffffffffffffffff8111156109b5576109b56116c4565b6040519080825280602002602001820160405280156109ee57816020015b6109db611328565b8152602001906001900390816109d35790505b50905060015b6002548111610bf0576000818152600160208181526040928390208351610120810190945280548452918201805491840191610a2f906117d4565b80601f0160208091040260200160405190810160405280929190818152602001828054610a5b906117d4565b8015610aa85780601f10610a7d57610100808354040283529160200191610aa8565b820191906000526020600020905b815481529060010190602001808311610a8b57829003601f168201915b50505050508152602001600282018054610ac1906117d4565b80601f0160208091040260200160405190810160405280929190818152602001828054610aed906117d4565b8015610b3a5780601f10610b0f57610100808354040283529160200191610b3a565b820191906000526020600020905b815481529060010190602001808311610b1d57829003601f168201915b505050918352505060038201546001600160a01b031660208201526004820154604082015260058201546060820152600682015460809091019060ff166002811115610b8857610b886113ed565b6002811115610b9957610b996113ed565b81526007820154602082015260089091015460ff16151560409091015282610bc2600184611855565b81518110610bd257610bd2611868565b60200260200101819052508080610be89061187e565b9150506109f4565b50919050565b600081815260016020526040902060080154819060ff16610c295760405162461bcd60e51b815260040161048390611808565b600082815260016020526040812090600682015460ff166002811115610c5157610c516113ed565b14610c975760405162461bcd60e51b815260206004820152601660248201527543616d706169676e206973206e6f742061637469766560501b6044820152606401610483565b60003411610cf35760405162461bcd60e51b815260206004820152602360248201527f436f6e747269627574696f6e206d75737420626520677265617465722074686160448201526206e20360ec1b6064820152608401610483565b8060040154348260050154610d089190611897565b1115610d565760405162461bcd60e51b815260206004820181905260248201527f436f6e747269627574696f6e206578636565647320676f616c20616d6f756e746044820152606401610483565b34816005016000828254610d6a9190611897565b909155505060008381526003602081815260408084208151606081018352338082523482860181815242848701908152855460018082018855968b52888b209551990290940180546001600160a01b0319166001600160a01b039099169890981788555193870193909355905160029095019490945587855260048352818520938552929091528220805491929091610e04908490611897565b9091555050604051348152339084907f0a4a91237423e0a1766a761c7cb029311d8b95d6b1b81db1b949a70c98b4e08e9060200160405180910390a38060040154816005015410610e8a5760068101805460ff1916600117905560405183907fbdef6a2e3aa892961a2dab48272f72f2bc1c7121eb1c0ed7e4a58e081c1e4be090600090a25b505050565b600081815260016020526040902060080154606090829060ff16610ec55760405162461bcd60e51b815260040161048390611808565b600083815260036020908152604080832080548251818502810185019093528083529193909284015b82821015610f43576000848152602090819020604080516060810182526003860290920180546001600160a01b0316835260018082015484860152600290910154918301919091529083529092019101610eee565b50505050915050919050565b60005460405163056720bf60e51b81523360048201526001600160a01b039091169063ace417e090602401602060405180830381865afa158015610f97573d6000803e3d6000fd5b505050506040513d601f19601f82011682018060405250810190610fbb91906118aa565b8061104b575060008054906101000a90046001600160a01b03166001600160a01b031663f851a4406040518163ffffffff1660e01b8152600401602060405180830381865afa158015611012573d6000803e3d6000fd5b505050506040513d601f19601f8201168201806040525081019061103691906118d3565b6001600160a01b0316336001600160a01b0316145b6110b15760405162461bcd60e51b815260206004820152603160248201527f4f6e6c79207665726966696564207573657273206f722061646d696e2063616e604482015270206372656174652063616d706169676e7360781b6064820152608401610483565b60008351116110fa5760405162461bcd60e51b81526020600482015260156024820152745469746c652063616e6e6f7420626520656d70747960581b6044820152606401610483565b600082511161114b5760405162461bcd60e51b815260206004820152601b60248201527f4465736372697074696f6e2063616e6e6f7420626520656d70747900000000006044820152606401610483565b600081116111a65760405162461bcd60e51b815260206004820152602260248201527f476f616c20616d6f756e74206d7573742062652067726561746572207468616e604482015261020360f41b6064820152608401610483565b600280549060006111b68361187e565b91905055506040518061012001604052806002548152602001848152602001838152602001336001600160a01b03168152602001828152602001600081526020016000600281111561120a5761120a6113ed565b8152426020808301919091526001604092830181905260025460009081528183529290922083518155908301519091820190611246908261193e565b506040820151600282019061125b908261193e565b5060608201516003820180546001600160a01b0319166001600160a01b039092169190911790556080820151600482015560a0820151600582015560c082015160068201805460ff191660018360028111156112b9576112b96113ed565b021790555060e08201516007820155610100909101516008909101805460ff19169115159190911790556002546040513391907f85d038f2d0b3728e5fede2ce367934666edeabb735999e2be302dc035466b98b9061131b90879086906119fe565b60405180910390a3505050565b60405180610120016040528060008152602001606081526020016060815260200160006001600160a01b0316815260200160008152602001600081526020016000600281111561137a5761137a6113ed565b815260006020820181905260409091015290565b6000602082840312156113a057600080fd5b5035919050565b6000815180845260005b818110156113cd576020818501810151868301820152016113b1565b506000602082860101526020601f19601f83011685010191505092915050565b634e487b7160e01b600052602160045260246000fd5b6003811061142157634e487b7160e01b600052602160045260246000fd5b9052565b60006101208b835280602084015261143f8184018c6113a7565b90508281036040840152611453818b6113a7565b6001600160a01b038a1660608501526080840189905260a084018890529150611481905060c0830186611403565b8360e08301528215156101008301529a9950505050505050505050565b6001600160a01b03811681146114b357600080fd5b50565b600080604083850312156114c957600080fd5b8235915060208301356114db8161149e565b809150509250929050565b600080604083850312156114f957600080fd5b50508035926020909101359150565b60006101008a83528060208401526115228184018b6113a7565b90508281036040840152611536818a6113a7565b6001600160a01b03891660608501526080840188905260a084018790529150611564905060c0830185611403565b8260e08301529998505050505050505050565b60006020808301818452808551808352604092508286019150828160051b87010184880160005b8381101561165457603f1989840301855281516101208151855288820151818a8701526115cd828701826113a7565b91505087820151858203898701526115e582826113a7565b915050606080830151611602828801826001600160a01b03169052565b50506080828101519086015260a0808301519086015260c08083015161162a82880182611403565b505060e082810151908601526101009182015115159190940152938601939086019060010161159e565b509098975050505050505050565b602080825282518282018190526000919060409081850190868401855b828110156116b757815180516001600160a01b031685528681015187860152850151858501526060909301929085019060010161167f565b5091979650505050505050565b634e487b7160e01b600052604160045260246000fd5b600082601f8301126116eb57600080fd5b813567ffffffffffffffff80821115611706576117066116c4565b604051601f8301601f19908116603f0116810190828211818310171561172e5761172e6116c4565b8160405283815286602085880101111561174757600080fd5b836020870160208301376000602085830101528094505050505092915050565b60008060006060848603121561177c57600080fd5b833567ffffffffffffffff8082111561179457600080fd5b6117a0878388016116da565b945060208601359150808211156117b657600080fd5b506117c3868287016116da565b925050604084013590509250925092565b600181811c908216806117e857607f821691505b602082108103610bf057634e487b7160e01b600052602260045260246000fd5b60208082526017908201527f43616d706169676e20646f6573206e6f74206578697374000000000000000000604082015260600190565b634e487b7160e01b600052601160045260246000fd5b818103818111156106f5576106f561183f565b634e487b7160e01b600052603260045260246000fd5b6000600182016118905761189061183f565b5060010190565b808201808211156106f5576106f561183f565b6000602082840312156118bc57600080fd5b815180151581146118cc57600080fd5b9392505050565b6000602082840312156118e557600080fd5b81516118cc8161149e565b601f821115610e8a57600081815260208120601f850160051c810160208610156119175750805b601f850160051c820191505b8181101561193657828155600101611923565b505050505050565b815167ffffffffffffffff811115611958576119586116c4565b61196c8161196684546117d4565b846118f0565b602080601f8311600181146119a157600084156119895750858301515b600019600386901b1c1916600185901b178555611936565b600085815260208120601f198616915b828110156119d0578886015182559484019460019091019084016119b1565b50858210156119ee5787850151600019600388901b60f8161c191681555b5050505050600190811b01905550565b604081526000611a1160408301856113a7565b9050826020830152939250505056fea264697066735822122030d2de1da19ad8f74d5c1562b911fd750de4043aac96c4b66c0cb790523c2a5364736f6c63430008130033",
  "linkReferences": {},
  "deployedLinkReferences": {}
}