{
  "_format": "hh-sol-artifact-1",
  "contractName": "Crowdfunding_Maryam",
  "sourceName": "contracts/Crowdfunding_Maryam.sol",
  "abi": [
    {
      "inputs": [
        {
          "internalType": "address",
          "name": "_kycRegistryAddress",
          "type": "address"
        }
      ],
      "stateMutability": "nonpayable",
      "type": "constructor"
    },
    {
      "anonymous": false,
      "inputs": [
        {
          "indexed": true,
          "internalType": "uint256",
          "name": "campaignId",
          "type": "uint256"
        }
      ],
      "name": "CampaignCompleted",
      "type": "event"
    },
    {
      "anonymous": false,
      "inputs": [
        {
          "indexed": true,
          "internalType": "uint256",
          "name": "campaignId",
          "type": "uint256"
        },
        {
          "indexed": false,
          "internalType": "string",
          "name": "title",
          "type": "string"
        },
        {
          "indexed": true,
          "internalType": "address",
          "name": "creator",
          "type": "address"
        },
        {
          "indexed": false,
          "internalType": "uint256",
          "name": "goalAmount",
          "type": "uint256"
        }
      ],
      "name": "CampaignCreated",
      "type": "event"
    },
    {
      "anonymous": false,
      "inputs": [
        {
          "indexed": true,
          "internalType": "uint256",
          "name": "campaignId",
          "type": "uint256"
        },
        {
          "indexed": true,
          "internalType": "address",
          "name": "contributor",
          "type": "address"
        },
        {
          "indexed": false,
          "internalType": "uint256",
          "name": "amount",
          "type": "uint256"
        }
      ],
      "name": "ContributionMade",
      "type": "event"
    },
    {
      "anonymous": false,
      "inputs": [
        {
          "indexed": true,
          "internalType": "uint256",
          "name": "campaignId",
          "type": "uint256"
        },
        {
          "indexed": true,
          "internalType": "address",
          "name": "creator",
          "type": "address"
        },
        {
          "indexed": false,
          "internalType": "uint256",
          "name": "amount",
          "type": "uint256"
        }
      ],
      "name": "FundsWithdrawn",
      "type": "event"
    },
    {
      "inputs": [
        {
          "internalType": "uint256",
          "name": "",
          "type": "uint256"
        },
        {
          "internalType": "uint256",
          "name": "",
          "type": "uint256"
        }
      ],
      "name": "campaignContributions",
      "outputs": [
        {
          "internalType": "address",
          "name": "contributor",
          "type": "address"
        },
        {
          "internalType": "uint256",
          "name": "amount",
          "type": "uint256"
        },
        {
          "internalType": "uint256",
          "name": "timestamp",
          "type": "uint256"
        }
      ],
      "stateMutability": "view",
      "type": "function"
    },
    {
      "inputs": [],
      "name": "campaignCount",
      "outputs": [
        {
          "internalType": "uint256",
          "name": "",
          "type": "uint256"
        }
      ],
      "stateMutability": "view",
      "type": "function"
    },
    {
      "inputs": [
        {
          "internalType": "uint256",
          "name": "",
          "type": "uint256"
        }
      ],
      "name": "campaigns",
      "outputs": [
        {
          "internalType": "uint256",
          "name": "id",
          "type": "uint256"
        },
        {
          "internalType": "string",
          "name": "title",
          "type": "string"
        },
        {
          "internalType": "string",
          "name": "description",
          "type": "string"
        },
        {
          "internalType": "address payable",
          "name": "creator",
          "type": "address"
        },
        {
          "internalType": "uint256",
          "name": "goalAmount",
          "type": "uint256"
        },
        {
          "internalType": "uint256",
          "name": "fundsRaised",
          "type": "uint256"
        },
        {
          "internalType": "enum Crowdfunding_Maryam.CampaignStatus",
          "name": "status",
          "type": "uint8"
        },
        {
          "internalType": "uint256",
          "name": "createdAt",
          "type": "uint256"
        },
        {
          "internalType": "bool",
          "name": "exists",
          "type": "bool"
        }
      ],
      "stateMutability": "view",
      "type": "function"
    },
    {
      "inputs": [
        {
          "internalType": "uint256",
          "name": "_campaignId",
          "type": "uint256"
        }
      ],
      "name": "contribute",
      "outputs": [],
      "stateMutability": "payable",
      "type": "function"
    },
    {
      "inputs": [
        {
          "internalType": "string",
          "name": "_title",
          "type": "string"
        },
        {
          "internalType": "string",
          "name": "_description",
          "type": "string"
        },
        {
          "internalType": "uint256",
          "name": "_goalAmount",
          "type": "uint256"
        }
      ],
      "name": "createCampaign",
      "outputs": [],
      "stateMutability": "nonpayable",
      "type": "function"
    },
    {
      "inputs": [],
      "name": "getAllCampaigns",
      "outputs": [
        {
          "components": [
            {
              "internalType": "uint256",
              "name": "id",
              "type": "uint256"
            },
            {
              "internalType": "string",
              "name": "title",
              "type": "string"
            },
            {
              "internalType": "string",
              "name": "description",
              "type": "string"
            },
            {
              "internalType": "address payable",
              "name": "creator",
              "type": "address"
            },
            {
              "internalType": "uint256",
              "name": "goalAmount",
              "type": "uint256"
            },
            {
              "internalType": "uint256",
              "name": "fundsRaised",
              "type": "uint256"
            },
            {
              "internalType": "enum Crowdfunding_Maryam.CampaignStatus",
              "name": "status",
              "type": "uint8"
            },
            {
              "internalType": "uint256",
              "name": "createdAt",
              "type": "uint256"
            },
            {
              "internalType": "bool",
              "name": "exists",
              "type": "bool"
            }
          ],
          "internalType": "struct Crowdfunding_Maryam.Campaign[]",
          "name": "",
          "type": "tuple[]"
        }
      ],
      "stateMutability": "view",
      "type": "function"
    },
    {
      "inputs": [
        {
          "internalType": "uint256",
          "name": "_campaignId",
          "type": "uint256"
        }
      ],
      "name": "getCampaign",
      "outputs": [
        {
          "internalType": "uint256",
          "name": "id",
          "type": "uint256"
        },
        {
          "internalType": "string",
          "name": "title",
          "type": "string"
        },
        {
          "internalType": "string",
          "name": "description",
          "type": "string"
        },
        {
          "internalType": "address",
          "name": "creator",
          "type": "address"
        },
        {
          "internalType": "uint256",
          "name": "goalAmount",
          "type": "uint256"
        },
        {
          "internalType": "uint256",
          "name": "fundsRaised",
          "type": "uint256"
        },
        {
          "internalType": "enum Crowdfunding_Maryam.CampaignStatus",
          "name": "status",
          "type": "uint8"
        },
        {
          "internalType": "uint256",
          "name": "createdAt",
          "type": "uint256"
        }
      ],
      "stateMutability": "view",
      "type": "function"
    },
    {
      "inputs": [
        {
          "internalType": "uint256",
          "name": "_campaignId",
          "type": "uint256"
        }
      ],
      "name": "getCampaignContributions",
      "outputs": [
        {
          "components": [
            {
              "internalType": "address",
              "name": "contributor",
              "type": "address"
            },
            {
              "internalType": "uint256",
              "name": "amount",
              "type": "uint256"
            },
            {
              "internalType": "uint256",
              "name": "timestamp",
              "type": "uint256"
            }
          ],
          "internalType": "struct Crowdfunding_Maryam.Contribution[]",
          "name": "",
          "type": "tuple[]"
        }
      ],
      "stateMutability": "view",
      "type": "function"
    },
    {
      "inputs": [],
      "name": "getTotalCampaigns",
      "outputs": [
        {
          "internalType": "uint256",
          "name": "",
          "type": "uint256"
        }
      ],
      "stateMutability": "view",
      "type": "function"
    },
    {
      "inputs": [
        {
          "internalType": "uint256",
          "name": "_campaignId",
          "type": "uint256"
        },
        {
          "internalType": "address",
          "name": "_user",
          "type": "address"
        }
      ],
      "name": "getUserContribution",
      "outputs": [
        {
          "internalType": "uint256",
          "name": "",
          "type": "uint256"
        }
      ],
      "stateMutability": "view",
      "type": "function"
    },
    {
      "inputs": [],
      "name": "kycRegistry",
      "outputs": [
        {
          "internalType": "contract IKYCRegistry",
          "name": "",
          "type": "address"
        }
      ],
      "stateMutability": "view",
      "type": "function"
    },
    {
      "inputs": [
        {
          "internalType": "uint256",
          "name": "",
          "type": "uint256"
        },
        {
          "internalType": "address",
          "name": "",
          "type": "address"
        }
      ],
      "name": "userContributions",
      "outputs": [
        {
          "internalType": "uint256",
          "name": "",
          "type": "uint256"
        }
      ],
      "stateMutability": "view",
      "type": "function"
    },
    {
      "inputs": [
        {
          "internalType": "uint256",
          "name": "_campaignId",
          "type": "uint256"
        }
      ],
      "name": "withdrawFunds",
      "outputs": [],
      "stateMutability": "nonpayable",
      "type": "function"
    }
  ],
  "bytecode": "0x608060405234801561001057600080fd5b50604051611b6c380380611b6c83398101604081905261002f91610059565b6001600081905580546001600160a01b0319166001600160a01b0392909216919091179055610089565b60006020828403121561006b57600080fd5b81516001600160a01b038116811461008257600080fd5b9392505050565b611ad4806100986000396000f3fe6080604052600436106100c25760003560e01c80635598f8cc1161007f578063c1cbbca711610059578063c1cbbca71461024f578063d3b0c32c14610262578063ed54890d1461028f578063ffa56a57146102c757600080fd5b80635598f8cc146101e35780637274e30d1461021757806386cdf6041461022d57600080fd5b8063141961bc146100c7578063155dd5ee1461010557806316f43dd4146101275780634b155b97146101465780635117e3381461017e578063539157bd1461019e575b600080fd5b3480156100d357600080fd5b506100e76100e236600461140c565b6102e7565b6040516100fc999897969594939291906114a3565b60405180910390f35b34801561011157600080fd5b5061012561012036600461140c565b610451565b005b34801561013357600080fd5b506003545b6040519081526020016100fc565b34801561015257600080fd5b50600154610166906001600160a01b031681565b6040516001600160a01b0390911681526020016100fc565b34801561018a57600080fd5b50610138610199366004611534565b6106e2565b3480156101aa57600080fd5b506101be6101b9366004611564565b61070c565b604080516001600160a01b0390941684526020840192909252908201526060016100fc565b3480156101ef57600080fd5b506102036101fe36600461140c565b610758565b6040516100fc989796959493929190611586565b34801561022357600080fd5b5061013860035481565b34801561023957600080fd5b506102426109af565b6040516100fc91906115f5565b61012561025d36600461140c565b610c16565b34801561026e57600080fd5b5061028261027d36600461140c565b610eb1565b6040516100fc91906116e0565b34801561029b57600080fd5b506101386102aa366004611534565b600560209081526000928352604080842090915290825290205481565b3480156102d357600080fd5b506101256102e23660046117e5565b610f71565b6002602052600090815260409020805460018201805491929161030990611852565b80601f016020809104026020016040519081016040528092919081815260200182805461033590611852565b80156103825780601f1061035757610100808354040283529160200191610382565b820191906000526020600020905b81548152906001019060200180831161036557829003601f168201915b50505050509080600201805461039790611852565b80601f01602080910402602001604051908101604052809291908181526020018280546103c390611852565b80156104105780601f106103e557610100808354040283529160200191610410565b820191906000526020600020905b8154815290600101906020018083116103f357829003601f168201915b5050506003840154600485015460058601546006870154600788015460089098015496976001600160a01b039094169692955090935060ff90811692911689565b600081815260026020526040902060080154819060ff1661048d5760405162461bcd60e51b815260040161048490611886565b60405180910390fd5b60008281526002602052604090206003015482906001600160a01b0316331461050e5760405162461bcd60e51b815260206004820152602d60248201527f4f6e6c792063616d706169676e2063726561746f722063616e20706572666f7260448201526c36903a3434b99030b1ba34b7b760991b6064820152608401610484565b61051661134d565b60008381526002602052604090206001600682015460ff16600281111561053f5761053f61146b565b1461059b5760405162461bcd60e51b815260206004820152602660248201527f43616d706169676e206d75737420626520636f6d706c6574656420746f20776960448201526574686472617760d01b6064820152608401610484565b6005810154806105e45760405162461bcd60e51b81526020600482015260146024820152734e6f2066756e647320746f20776974686472617760601b6044820152606401610484565b60068201805460ff1916600217905560038201546040516000916001600160a01b03169083908381818185875af1925050503d8060008114610642576040519150601f19603f3d011682016040523d82523d6000602084013e610647565b606091505b505090508061068a5760405162461bcd60e51b815260206004820152600f60248201526e151c985b9cd9995c8819985a5b1959608a1b6044820152606401610484565b60038301546040518381526001600160a01b039091169087907ff440aec6b52895984d061d622e6edeba6210f7c3e059be920663140c084560d79060200160405180910390a35050506106dd6001600055565b505050565b60008281526005602090815260408083206001600160a01b03851684529091529020545b92915050565b6004602052816000526040600020818154811061072857600080fd5b60009182526020909120600390910201805460018201546002909201546001600160a01b03909116935090915083565b600081815260026020526040812060080154606090819083908190819081908190899060ff1661079a5760405162461bcd60e51b815260040161048490611886565b6000600260008c815260200190815260200160002060405180610120016040529081600082015481526020016001820180546107d590611852565b80601f016020809104026020016040519081016040528092919081815260200182805461080190611852565b801561084e5780601f106108235761010080835404028352916020019161084e565b820191906000526020600020905b81548152906001019060200180831161083157829003601f168201915b5050505050815260200160028201805461086790611852565b80601f016020809104026020016040519081016040528092919081815260200182805461089390611852565b80156108e05780601f106108b5576101008083540402835291602001916108e0565b820191906000526020600020905b8154815290600101906020018083116108c357829003601f168201915b505050918352505060038201546001600160a01b031660208201526004820154604082015260058201546060820152600682015460809091019060ff16600281111561092e5761092e61146b565b600281111561093f5761093f61146b565b8152602001600782015481526020016008820160009054906101000a900460ff1615151515815250509050806000015181602001518260400151836060015184608001518560a001518660c001518760e00151995099509950995099509950995099505050919395975091939597565b6060600060035467ffffffffffffffff8111156109ce576109ce611742565b604051908082528060200260200182016040528015610a0757816020015b6109f46113a6565b8152602001906001900390816109ec5790505b50905060015b6003548111610c1057600260008281526020019081526020016000206040518061012001604052908160008201548152602001600182018054610a4f90611852565b80601f0160208091040260200160405190810160405280929190818152602001828054610a7b90611852565b8015610ac85780601f10610a9d57610100808354040283529160200191610ac8565b820191906000526020600020905b815481529060010190602001808311610aab57829003601f168201915b50505050508152602001600282018054610ae190611852565b80601f0160208091040260200160405190810160405280929190818152602001828054610b0d90611852565b8015610b5a5780601f10610b2f57610100808354040283529160200191610b5a565b820191906000526020600020905b815481529060010190602001808311610b3d57829003601f168201915b505050918352505060038201546001600160a01b031660208201526004820154604082015260058201546060820152600682015460809091019060ff166002811115610ba857610ba861146b565b6002811115610bb957610bb961146b565b81526007820154602082015260089091015460ff16151560409091015282610be26001846118d3565b81518110610bf257610bf26118e6565b60200260200101819052508080610c08906118fc565b915050610a0d565b50919050565b600081815260026020526040902060080154819060ff16610c495760405162461bcd60e51b815260040161048490611886565b600082815260026020526040812090600682015460ff166002811115610c7157610c7161146b565b14610cb75760405162461bcd60e51b815260206004820152601660248201527543616d706169676e206973206e6f742061637469766560501b6044820152606401610484565b60003411610d135760405162461bcd60e51b815260206004820152602360248201527f436f6e747269627574696f6e206d75737420626520677265617465722074686160448201526206e20360ec1b6064820152608401610484565b8060040154348260050154610d289190611915565b1115610d765760405162461bcd60e51b815260206004820181905260248201527f436f6e747269627574696f6e206578636565647320676f616c20616d6f756e746044820152606401610484565b34816005016000828254610d8a9190611915565b909155505060008381526004602090815260408083208151606081018352338082523482860181815242848701908152855460018082018855968a52888a209551600390910290950180546001600160a01b0319166001600160a01b039096169590951785559051948401949094559251600290920191909155878552600584528285209085529092528220805491929091610e27908490611915565b9091555050604051348152339084907f0a4a91237423e0a1766a761c7cb029311d8b95d6b1b81db1b949a70c98b4e08e9060200160405180910390a380600401548160050154106106dd5760068101805460ff1916600117905560405183907fbdef6a2e3aa892961a2dab48272f72f2bc1c7121eb1c0ed7e4a58e081c1e4be090600090a2505050565b600081815260026020526040902060080154606090829060ff16610ee75760405162461bcd60e51b815260040161048490611886565b600083815260046020908152604080832080548251818502810185019093528083529193909284015b82821015610f65576000848152602090819020604080516060810182526003860290920180546001600160a01b0316835260018082015484860152600290910154918301919091529083529092019101610f10565b50505050915050919050565b60015460405163056720bf60e51b81523360048201526001600160a01b039091169063ace417e090602401602060405180830381865afa158015610fb9573d6000803e3d6000fd5b505050506040513d601f19601f82011682018060405250810190610fdd9190611928565b8061106f5750600160009054906101000a90046001600160a01b03166001600160a01b031663f851a4406040518163ffffffff1660e01b8152600401602060405180830381865afa158015611036573d6000803e3d6000fd5b505050506040513d601f19601f8201168201806040525081019061105a9190611951565b6001600160a01b0316336001600160a01b0316145b6110d55760405162461bcd60e51b815260206004820152603160248201527f4f6e6c79207665726966696564207573657273206f722061646d696e2063616e604482015270206372656174652063616d706169676e7360781b6064820152608401610484565b600083511161111e5760405162461bcd60e51b81526020600482015260156024820152745469746c652063616e6e6f7420626520656d70747960581b6044820152606401610484565b600082511161116f5760405162461bcd60e51b815260206004820152601b60248201527f4465736372697074696f6e2063616e6e6f7420626520656d70747900000000006044820152606401610484565b600081116111ca5760405162461bcd60e51b815260206004820152602260248201527f476f616c20616d6f756e74206d7573742062652067726561746572207468616e604482015261020360f41b6064820152608401610484565b600380549060006111da836118fc565b91905055506040518061012001604052806003548152602001848152602001838152602001336001600160a01b03168152602001828152602001600081526020016000600281111561122e5761122e61146b565b81524260208083019190915260016040928301819052600354600090815260028352929092208351815590830151909182019061126b90826119bc565b506040820151600282019061128090826119bc565b5060608201516003820180546001600160a01b0319166001600160a01b039092169190911790556080820151600482015560a0820151600582015560c082015160068201805460ff191660018360028111156112de576112de61146b565b021790555060e08201516007820155610100909101516008909101805460ff19169115159190911790556003546040513391907f85d038f2d0b3728e5fede2ce367934666edeabb735999e2be302dc035466b98b906113409087908690611a7c565b60405180910390a3505050565b60026000540361139f5760405162461bcd60e51b815260206004820152601f60248201527f5265656e7472616e637947756172643a207265656e7472616e742063616c6c006044820152606401610484565b6002600055565b60405180610120016040528060008152602001606081526020016060815260200160006001600160a01b031681526020016000815260200160008152602001600060028111156113f8576113f861146b565b815260006020820181905260409091015290565b60006020828403121561141e57600080fd5b5035919050565b6000815180845260005b8181101561144b5760208185018101518683018201520161142f565b506000602082860101526020601f19601f83011685010191505092915050565b634e487b7160e01b600052602160045260246000fd5b6003811061149f57634e487b7160e01b600052602160045260246000fd5b9052565b60006101208b83528060208401526114bd8184018c611425565b905082810360408401526114d1818b611425565b6001600160a01b038a1660608501526080840189905260a0840188905291506114ff905060c0830186611481565b8360e08301528215156101008301529a9950505050505050505050565b6001600160a01b038116811461153157600080fd5b50565b6000806040838503121561154757600080fd5b8235915060208301356115598161151c565b809150509250929050565b6000806040838503121561157757600080fd5b50508035926020909101359150565b60006101008a83528060208401526115a08184018b611425565b905082810360408401526115b4818a611425565b6001600160a01b03891660608501526080840188905260a0840187905291506115e2905060c0830185611481565b8260e08301529998505050505050505050565b60006020808301818452808551808352604092508286019150828160051b87010184880160005b838110156116d257603f1989840301855281516101208151855288820151818a87015261164b82870182611425565b91505087820151858203898701526116638282611425565b915050606080830151611680828801826001600160a01b03169052565b50506080828101519086015260a0808301519086015260c0808301516116a882880182611481565b505060e082810151908601526101009182015115159190940152938601939086019060010161161c565b509098975050505050505050565b602080825282518282018190526000919060409081850190868401855b8281101561173557815180516001600160a01b03168552868101518786015285015185850152606090930192908501906001016116fd565b5091979650505050505050565b634e487b7160e01b600052604160045260246000fd5b600082601f83011261176957600080fd5b813567ffffffffffffffff8082111561178457611784611742565b604051601f8301601f19908116603f011681019082821181831017156117ac576117ac611742565b816040528381528660208588010111156117c557600080fd5b836020870160208301376000602085830101528094505050505092915050565b6000806000606084860312156117fa57600080fd5b833567ffffffffffffffff8082111561181257600080fd5b61181e87838801611758565b9450602086013591508082111561183457600080fd5b5061184186828701611758565b925050604084013590509250925092565b600181811c9082168061186657607f821691505b602082108103610c1057634e487b7160e01b600052602260045260246000fd5b60208082526017908201527f43616d706169676e20646f6573206e6f74206578697374000000000000000000604082015260600190565b634e487b7160e01b600052601160045260246000fd5b81810381811115610706576107066118bd565b634e487b7160e01b600052603260045260246000fd5b60006001820161190e5761190e6118bd565b5060010190565b80820180821115610706576107066118bd565b60006020828403121561193a57600080fd5b8151801515811461194a57600080fd5b9392505050565b60006020828403121561196357600080fd5b815161194a8161151c565b601f8211156106dd57600081815260208120601f850160051c810160208610156119955750805b601f850160051c820191505b818110156119b4578281556001016119a1565b505050505050565b815167ffffffffffffffff8111156119d6576119d6611742565b6119ea816119e48454611852565b8461196e565b602080601f831160018114611a1f5760008415611a075750858301515b600019600386901b1c1916600185901b1785556119b4565b600085815260208120601f198616915b82811015611a4e57888601518255948401946001909101908401611a2f565b5085821015611a6c5787850151600019600388901b60f8161c191681555b5050505050600190811b01905550565b604081526000611a8f6040830185611425565b9050826020830152939250505056fea2646970667358221220844ee4ce26a240791286af136d03737c76a37aed93890014329ea4abd5a8d6f564736f6c63430008130033",
  "linkReferences": {},
  "deployedLinkReferences": {}
}