{
  "_format": "hh-sol-artifact-1",
  "contractName": "KYCRegistry_Maryam",
  "sourceName": "contracts/KYCRegistry_Maryam.sol",
  "abi": [
    {
      "inputs": [],
      "stateMutability": "nonpayable",
      "type": "constructor"
    },
    {
      "anonymous": false,
      "inputs": [
        {
          "indexed": true,
          "internalType": "address",
          "name": "user",
          "type": "address"
        },
        {
          "indexed": false,
          "internalType": "string",
          "name": "fullName",
          "type": "string"
        }
      ],
      "name": "KYCApproved",
      "type": "event"
    },
    {
      "anonymous": false,
      "inputs": [
        {
          "indexed": true,
          "internalType": "address",
          "name": "user",
          "type": "address"
        }
      ],
      "name": "KYCRejected",
      "type": "event"
    },
    {
      "anonymous": false,
      "inputs": [
        {
          "indexed": true,
          "internalType": "address",
          "name": "user",
          "type": "address"
        },
        {
          "indexed": false,
          "internalType": "string",
          "name": "fullName",
          "type": "string"
        },
        {
          "indexed": false,
          "internalType": "string",
          "name": "cnic",
          "type": "string"
        }
      ],
      "name": "KYCSubmitted",
      "type": "event"
    },
    {
      "anonymous": false,
      "inputs": [
        {
          "indexed": true,
          "internalType": "address",
          "name": "previousOwner",
          "type": "address"
        },
        {
          "indexed": true,
          "internalType": "address",
          "name": "newOwner",
          "type": "address"
        }
      ],
      "name": "OwnershipTransferred",
      "type": "event"
    },
    {
      "inputs": [],
      "name": "admin",
      "outputs": [
        {
          "internalType": "address",
          "name": "",
          "type": "address"
        }
      ],
      "stateMutability": "view",
      "type": "function"
    },
    {
      "inputs": [
        {
          "internalType": "uint256",
          "name": "",
          "type": "uint256"
        }
      ],
      "name": "allKYCRequests",
      "outputs": [
        {
          "internalType": "address",
          "name": "",
          "type": "address"
        }
      ],
      "stateMutability": "view",
      "type": "function"
    },
    {
      "inputs": [
        {
          "internalType": "address",
          "name": "_user",
          "type": "address"
        }
      ],
      "name": "approveKYC",
      "outputs": [],
      "stateMutability": "nonpayable",
      "type": "function"
    },
    {
      "inputs": [],
      "name": "getAllKYCRequests",
      "outputs": [
        {
          "internalType": "address[]",
          "name": "",
          "type": "address[]"
        }
      ],
      "stateMutability": "view",
      "type": "function"
    },
    {
      "inputs": [
        {
          "internalType": "address",
          "name": "_user",
          "type": "address"
        }
      ],
      "name": "getKYCDetails",
      "outputs": [
        {
          "internalType": "string",
          "name": "fullName",
          "type": "string"
        },
        {
          "internalType": "string",
          "name": "cnic",
          "type": "string"
        },
        {
          "internalType": "bool",
          "name": "isVerified",
          "type": "bool"
        },
        {
          "internalType": "bool",
          "name": "exists",
          "type": "bool"
        },
        {
          "internalType": "uint256",
          "name": "timestamp",
          "type": "uint256"
        }
      ],
      "stateMutability": "view",
      "type": "function"
    },
    {
      "inputs": [],
      "name": "getTotalKYCRequests",
      "outputs": [
        {
          "internalType": "uint256",
          "name": "",
          "type": "uint256"
        }
      ],
      "stateMutability": "view",
      "type": "function"
    },
    {
      "inputs": [
        {
          "internalType": "address",
          "name": "_user",
          "type": "address"
        }
      ],
      "name": "isUserVerified",
      "outputs": [
        {
          "internalType": "bool",
          "name": "",
          "type": "bool"
        }
      ],
      "stateMutability": "view",
      "type": "function"
    },
    {
      "inputs": [
        {
          "internalType": "address",
          "name": "",
          "type": "address"
        }
      ],
      "name": "kycRequests",
      "outputs": [
        {
          "internalType": "address",
          "name": "userAddress",
          "type": "address"
        },
        {
          "internalType": "string",
          "name": "fullName",
          "type": "string"
        },
        {
          "internalType": "string",
          "name": "cnic",
          "type": "string"
        },
        {
          "internalType": "bool",
          "name": "isVerified",
          "type": "bool"
        },
        {
          "internalType": "bool",
          "name": "exists",
          "type": "bool"
        },
        {
          "internalType": "uint256",
          "name": "timestamp",
          "type": "uint256"
        }
      ],
      "stateMutability": "view",
      "type": "function"
    },
    {
      "inputs": [],
      "name": "owner",
      "outputs": [
        {
          "internalType": "address",
          "name": "",
          "type": "address"
        }
      ],
      "stateMutability": "view",
      "type": "function"
    },
    {
      "inputs": [
        {
          "internalType": "address",
          "name": "_user",
          "type": "address"
        }
      ],
      "name": "rejectKYC",
      "outputs": [],
      "stateMutability": "nonpayable",
      "type": "function"
    },
    {
      "inputs": [],
      "name": "renounceOwnership",
      "outputs": [],
      "stateMutability": "nonpayable",
      "type": "function"
    },
    {
      "inputs": [
        {
          "internalType": "string",
          "name": "_fullName",
          "type": "string"
        },
        {
          "internalType": "string",
          "name": "_cnic",
          "type": "string"
        }
      ],
      "name": "submitKYC",
      "outputs": [],
      "stateMutability": "nonpayable",
      "type": "function"
    },
    {
      "inputs": [
        {
          "internalType": "address",
          "name": "newOwner",
          "type": "address"
        }
      ],
      "name": "transferOwnership",
      "outputs": [],
      "stateMutability": "nonpayable",
      "type": "function"
    }
  ],
  "bytecode": "0x608060405234801561001057600080fd5b5061001a3361001f565b61006f565b600080546001600160a01b038381166001600160a01b0319831681178455604051919092169283917f8be0079c531659141344cd1fd0a4f28419497f9722a3daafe3b4186f6b6457e09190a35050565b6112468061007e6000396000f3fe608060405234801561001057600080fd5b50600436106100cf5760003560e01c806389cca0361161008c578063c3d04bc611610066578063c3d04bc6146101cf578063c42e5888146101f3578063f2fde38b14610206578063f851a4401461017f57600080fd5b806389cca036146101545780638da5cb5b1461017f578063ace417e01461019057600080fd5b80630c670595146100d45780630e27324d146100e957806311c733f3146100fc57806319171561146101125780632e95678714610137578063715018a61461014c575b600080fd5b6100e76100e2366004610dc2565b610219565b005b6100e76100f7366004610e26565b6104af565b6002546040519081526020015b60405180910390f35b610125610120366004610e26565b6105ea565b60405161010996959493929190610e9c565b61013f610741565b6040516101099190610ef1565b6100e76107a3565b610167610162366004610f3e565b6107b7565b6040516001600160a01b039091168152602001610109565b6000546001600160a01b0316610167565b6101bf61019e366004610e26565b6001600160a01b031660009081526001602052604090206003015460ff1690565b6040519015158152602001610109565b6101e26101dd366004610e26565b6107e1565b604051610109959493929190610f57565b6100e7610201366004610e26565b61099c565b6100e7610214366004610e26565b610bae565b3360009081526001602052604090206003015460ff16156102745760405162461bcd60e51b815260206004820152601060248201526f105b1c9958591e481d995c9a599a595960821b60448201526064015b60405180910390fd5b60008251116102bc5760405162461bcd60e51b81526020600482015260146024820152734e616d652063616e6e6f7420626520656d70747960601b604482015260640161026b565b8051600d146103065760405162461bcd60e51b8152602060048201526016602482015275434e4943206d7573742062652031332064696769747360501b604482015260640161026b565b33600090815260016020526040902060030154610100900460ff161561036e5760405162461bcd60e51b815260206004820152601d60248201527f4b5943207265717565737420616c7265616479207375626d6974746564000000604482015260640161026b565b6040805160c0810182523380825260208083018681528385018690526000606085018190526001608086018190524260a087015293815291839052939020825181546001600160a01b0319166001600160a01b039091161781559251919291908201906103db9082611023565b50604082015160028201906103f09082611023565b506060820151600382018054608085015115156101000261ff00199315159390931661ffff199091161791909117905560a090910151600490910155600280546001810182556000919091527f405787fa12a823e0f2b7631cc41b3ba8828b3321ca811111fa75cd3aa3bb5ace0180546001600160a01b031916339081179091556040517f74aeb3a73c6cebe2ddfb681c384e0117cc8dd5e93900b3b1507dee33c2603841906104a390859085906110e3565b60405180910390a25050565b6104b7610c27565b6001600160a01b038116600090815260016020526040902060030154610100900460ff166105275760405162461bcd60e51b815260206004820152601a60248201527f4b5943207265717565737420646f6573206e6f74206578697374000000000000604482015260640161026b565b6001600160a01b03811660009081526001602052604090206003015460ff16156105865760405162461bcd60e51b815260206004820152601060248201526f105b1c9958591e481d995c9a599a595960821b604482015260640161026b565b6001600160a01b03811660008181526001602081905260409182902060038101805460ff19168317905591517f9c6d0ea99590d55d418d15b343f2caf0db5bfde9be3a13389f316a0f736c44f5926105df920190611111565b60405180910390a250565b6001602081905260009182526040909120805491810180546001600160a01b039093169261061790610f9a565b80601f016020809104026020016040519081016040528092919081815260200182805461064390610f9a565b80156106905780601f1061066557610100808354040283529160200191610690565b820191906000526020600020905b81548152906001019060200180831161067357829003601f168201915b5050505050908060020180546106a590610f9a565b80601f01602080910402602001604051908101604052809291908181526020018280546106d190610f9a565b801561071e5780601f106106f35761010080835404028352916020019161071e565b820191906000526020600020905b81548152906001019060200180831161070157829003601f168201915b505050506003830154600490930154919260ff8082169361010090920416915086565b6060600280548060200260200160405190810160405280929190818152602001828054801561079957602002820191906000526020600020905b81546001600160a01b0316815260019091019060200180831161077b575b5050505050905090565b6107ab610c27565b6107b56000610c81565b565b600281815481106107c757600080fd5b6000918252602090912001546001600160a01b0316905081565b6001600160a01b038082166000908152600160208181526040808420815160c081019092528054909516815291840180546060958695948594859485949293929184019161082e90610f9a565b80601f016020809104026020016040519081016040528092919081815260200182805461085a90610f9a565b80156108a75780601f1061087c576101008083540402835291602001916108a7565b820191906000526020600020905b81548152906001019060200180831161088a57829003601f168201915b505050505081526020016002820180546108c090610f9a565b80601f01602080910402602001604051908101604052809291908181526020018280546108ec90610f9a565b80156109395780601f1061090e57610100808354040283529160200191610939565b820191906000526020600020905b81548152906001019060200180831161091c57829003601f168201915b5050509183525050600382015460ff80821615156020808501919091526101009092041615156040808401919091526004909301546060928301528301519183015190830151608084015160a090940151929b919a509850919650945092505050565b6109a4610c27565b6001600160a01b038116600090815260016020526040902060030154610100900460ff16610a145760405162461bcd60e51b815260206004820152601a60248201527f4b5943207265717565737420646f6573206e6f74206578697374000000000000604482015260640161026b565b6001600160a01b0381166000908152600160208190526040822080546001600160a01b03191681559190610a4a90830182610cd1565b610a58600283016000610cd1565b5060038101805461ffff19169055600060049091018190555b600254811015610b7657816001600160a01b031660028281548110610a9857610a9861119c565b6000918252602090912001546001600160a01b031603610b645760028054610ac2906001906111c8565b81548110610ad257610ad261119c565b600091825260209091200154600280546001600160a01b039092169183908110610afe57610afe61119c565b9060005260206000200160006101000a8154816001600160a01b0302191690836001600160a01b031602179055506002805480610b3d57610b3d6111e1565b600082815260209020810160001990810180546001600160a01b0319169055019055610b76565b80610b6e816111f7565b915050610a71565b506040516001600160a01b038216907fa34e10975b6442017fb6ca6ba35e6d671924c59f52737e20ef2362a5ca2c275190600090a250565b610bb6610c27565b6001600160a01b038116610c1b5760405162461bcd60e51b815260206004820152602660248201527f4f776e61626c653a206e6577206f776e657220697320746865207a65726f206160448201526564647265737360d01b606482015260840161026b565b610c2481610c81565b50565b6000546001600160a01b031633146107b55760405162461bcd60e51b815260206004820181905260248201527f4f776e61626c653a2063616c6c6572206973206e6f7420746865206f776e6572604482015260640161026b565b600080546001600160a01b038381166001600160a01b0319831681178455604051919092169283917f8be0079c531659141344cd1fd0a4f28419497f9722a3daafe3b4186f6b6457e09190a35050565b508054610cdd90610f9a565b6000825580601f10610ced575050565b601f016020900490600052602060002090810190610c2491905b80821115610d1b5760008155600101610d07565b5090565b634e487b7160e01b600052604160045260246000fd5b600082601f830112610d4657600080fd5b813567ffffffffffffffff80821115610d6157610d61610d1f565b604051601f8301601f19908116603f01168101908282118183101715610d8957610d89610d1f565b81604052838152866020858801011115610da257600080fd5b836020870160208301376000602085830101528094505050505092915050565b60008060408385031215610dd557600080fd5b823567ffffffffffffffff80821115610ded57600080fd5b610df986838701610d35565b93506020850135915080821115610e0f57600080fd5b50610e1c85828601610d35565b9150509250929050565b600060208284031215610e3857600080fd5b81356001600160a01b0381168114610e4f57600080fd5b9392505050565b6000815180845260005b81811015610e7c57602081850181015186830182015201610e60565b506000602082860101526020601f19601f83011685010191505092915050565b6001600160a01b038716815260c060208201819052600090610ec090830188610e56565b8281036040840152610ed28188610e56565b95151560608401525050911515608083015260a0909101529392505050565b6020808252825182820181905260009190848201906040850190845b81811015610f325783516001600160a01b031683529284019291840191600101610f0d565b50909695505050505050565b600060208284031215610f5057600080fd5b5035919050565b60a081526000610f6a60a0830188610e56565b8281036020840152610f7c8188610e56565b95151560408401525050911515606083015260809091015292915050565b600181811c90821680610fae57607f821691505b602082108103610fce57634e487b7160e01b600052602260045260246000fd5b50919050565b601f82111561101e57600081815260208120601f850160051c81016020861015610ffb5750805b601f850160051c820191505b8181101561101a57828155600101611007565b5050505b505050565b815167ffffffffffffffff81111561103d5761103d610d1f565b6110518161104b8454610f9a565b84610fd4565b602080601f831160018114611086576000841561106e5750858301515b600019600386901b1c1916600185901b17855561101a565b600085815260208120601f198616915b828110156110b557888601518255948401946001909101908401611096565b50858210156110d35787850151600019600388901b60f8161c191681555b5050505050600190811b01905550565b6040815260006110f66040830185610e56565b82810360208401526111088185610e56565b95945050505050565b600060208083526000845461112581610f9a565b8084870152604060018084166000811461114657600181146111605761118e565b60ff1985168984015283151560051b89018301955061118e565b896000528660002060005b858110156111865781548b820186015290830190880161116b565b8a0184019650505b509398975050505050505050565b634e487b7160e01b600052603260045260246000fd5b634e487b7160e01b600052601160045260246000fd5b818103818111156111db576111db6111b2565b92915050565b634e487b7160e01b600052603160045260246000fd5b600060018201611209576112096111b2565b506001019056fea264697066735822122055a60988a151559114988ef9f99b7b30bd7e0da6dd1112d71c95efe4c616eb8764736f6c63430008130033",
  "linkReferences": {},
  "deployedLinkReferences": {}
}