{
  "_format": "hh-sol-artifact-1",
  "contractName": "KYCRegistry_Maryam",
  "sourceName": "contracts/KYCRegistry_Maryam.sol",
  "abi": [
    {
      "inputs": [],
      "stateMutability": "nonpayable",
      "type": "constructor"
    },
    {
      "anonymous": false,
      "inputs": [
        {
          "indexed": true,
          "internalType": "address",
          "name": "user",
          "type": "address"
        },
        {
          "indexed": false,
          "internalType": "string",
          "name": "fullName",
          "type": "string"
        }
      ],
      "name": "KYCApproved",
      "type": "event"
    },
    {
      "anonymous": false,
      "inputs": [
        {
          "indexed": true,
          "internalType": "address",
          "name": "user",
          "type": "address"
        }
      ],
      "name": "KYCRejected",
      "type": "event"
    },
    {
      "anonymous": false,
      "inputs": [
        {
          "indexed": true,
          "internalType": "address",
          "name": "user",
          "type": "address"
        },
        {
          "indexed": false,
          "internalType": "string",
          "name": "fullName",
          "type": "string"
        },
        {
          "indexed": false,
          "internalType": "string",
          "name": "cnic",
          "type": "string"
        }
      ],
      "name": "KYCSubmitted",
      "type": "event"
    },
    {
      "inputs": [],
      "name": "admin",
      "outputs": [
        {
          "internalType": "address",
          "name": "",
          "type": "address"
        }
      ],
      "stateMutability": "view",
      "type": "function"
    },
    {
      "inputs": [
        {
          "internalType": "uint256",
          "name": "",
          "type": "uint256"
        }
      ],
      "name": "allKYCRequests",
      "outputs": [
        {
          "internalType": "address",
          "name": "",
          "type": "address"
        }
      ],
      "stateMutability": "view",
      "type": "function"
    },
    {
      "inputs": [
        {
          "internalType": "address",
          "name": "_user",
          "type": "address"
        }
      ],
      "name": "approveKYC",
      "outputs": [],
      "stateMutability": "nonpayable",
      "type": "function"
    },
    {
      "inputs": [],
      "name": "getAllKYCRequests",
      "outputs": [
        {
          "internalType": "address[]",
          "name": "",
          "type": "address[]"
        }
      ],
      "stateMutability": "view",
      "type": "function"
    },
    {
      "inputs": [
        {
          "internalType": "address",
          "name": "_user",
          "type": "address"
        }
      ],
      "name": "getKYCDetails",
      "outputs": [
        {
          "internalType": "string",
          "name": "fullName",
          "type": "string"
        },
        {
          "internalType": "string",
          "name": "cnic",
          "type": "string"
        },
        {
          "internalType": "bool",
          "name": "isVerified",
          "type": "bool"
        },
        {
          "internalType": "bool",
          "name": "exists",
          "type": "bool"
        },
        {
          "internalType": "uint256",
          "name": "timestamp",
          "type": "uint256"
        }
      ],
      "stateMutability": "view",
      "type": "function"
    },
    {
      "inputs": [],
      "name": "getTotalKYCRequests",
      "outputs": [
        {
          "internalType": "uint256",
          "name": "",
          "type": "uint256"
        }
      ],
      "stateMutability": "view",
      "type": "function"
    },
    {
      "inputs": [
        {
          "internalType": "address",
          "name": "_user",
          "type": "address"
        }
      ],
      "name": "isUserVerified",
      "outputs": [
        {
          "internalType": "bool",
          "name": "",
          "type": "bool"
        }
      ],
      "stateMutability": "view",
      "type": "function"
    },
    {
      "inputs": [
        {
          "internalType": "address",
          "name": "",
          "type": "address"
        }
      ],
      "name": "kycRequests",
      "outputs": [
        {
          "internalType": "address",
          "name": "userAddress",
          "type": "address"
        },
        {
          "internalType": "string",
          "name": "fullName",
          "type": "string"
        },
        {
          "internalType": "string",
          "name": "cnic",
          "type": "string"
        },
        {
          "internalType": "bool",
          "name": "isVerified",
          "type": "bool"
        },
        {
          "internalType": "bool",
          "name": "exists",
          "type": "bool"
        },
        {
          "internalType": "uint256",
          "name": "timestamp",
          "type": "uint256"
        }
      ],
      "stateMutability": "view",
      "type": "function"
    },
    {
      "inputs": [
        {
          "internalType": "address",
          "name": "_user",
          "type": "address"
        }
      ],
      "name": "rejectKYC",
      "outputs": [],
      "stateMutability": "nonpayable",
      "type": "function"
    },
    {
      "inputs": [
        {
          "internalType": "string",
          "name": "_fullName",
          "type": "string"
        },
        {
          "internalType": "string",
          "name": "_cnic",
          "type": "string"
        }
      ],
      "name": "submitKYC",
      "outputs": [],
      "stateMutability": "nonpayable",
      "type": "function"
    }
  ],
  "bytecode": "0x608060405234801561001057600080fd5b50600080546001600160a01b03191633179055611153806100326000396000f3fe608060405234801561001057600080fd5b506004361061009e5760003560e01c806389cca0361161006657806389cca0361461011b578063ace417e014610146578063c3d04bc614610185578063c42e5888146101a9578063f851a440146101bc57600080fd5b80630c670595146100a35780630e27324d146100b857806311c733f3146100cb57806319171561146100e15780632e95678714610106575b600080fd5b6100b66100b1366004610c8d565b6101cf565b005b6100b66100c6366004610cf1565b610465565b6002546040519081526020015b60405180910390f35b6100f46100ef366004610cf1565b6105c2565b6040516100d896959493929190610d67565b61010e610719565b6040516100d89190610dbc565b61012e610129366004610e09565b61077b565b6040516001600160a01b0390911681526020016100d8565b610175610154366004610cf1565b6001600160a01b031660009081526001602052604090206003015460ff1690565b60405190151581526020016100d8565b610198610193366004610cf1565b6107a5565b6040516100d8959493929190610e22565b6100b66101b7366004610cf1565b610960565b60005461012e906001600160a01b031681565b3360009081526001602052604090206003015460ff161561022a5760405162461bcd60e51b815260206004820152601060248201526f105b1c9958591e481d995c9a599a595960821b60448201526064015b60405180910390fd5b60008251116102725760405162461bcd60e51b81526020600482015260146024820152734e616d652063616e6e6f7420626520656d70747960601b6044820152606401610221565b8051600d146102bc5760405162461bcd60e51b8152602060048201526016602482015275434e4943206d7573742062652031332064696769747360501b6044820152606401610221565b33600090815260016020526040902060030154610100900460ff16156103245760405162461bcd60e51b815260206004820152601d60248201527f4b5943207265717565737420616c7265616479207375626d69747465640000006044820152606401610221565b6040805160c0810182523380825260208083018681528385018690526000606085018190526001608086018190524260a087015293815291839052939020825181546001600160a01b0319166001600160a01b039091161781559251919291908201906103919082610eee565b50604082015160028201906103a69082610eee565b506060820151600382018054608085015115156101000261ff00199315159390931661ffff199091161791909117905560a090910151600490910155600280546001810182556000919091527f405787fa12a823e0f2b7631cc41b3ba8828b3321ca811111fa75cd3aa3bb5ace0180546001600160a01b031916339081179091556040517f74aeb3a73c6cebe2ddfb681c384e0117cc8dd5e93900b3b1507dee33c2603841906104599085908590610fae565b60405180910390a25050565b6000546001600160a01b0316331461048f5760405162461bcd60e51b815260040161022190610fdc565b6001600160a01b038116600090815260016020526040902060030154610100900460ff166104ff5760405162461bcd60e51b815260206004820152601a60248201527f4b5943207265717565737420646f6573206e6f742065786973740000000000006044820152606401610221565b6001600160a01b03811660009081526001602052604090206003015460ff161561055e5760405162461bcd60e51b815260206004820152601060248201526f105b1c9958591e481d995c9a599a595960821b6044820152606401610221565b6001600160a01b03811660008181526001602081905260409182902060038101805460ff19168317905591517f9c6d0ea99590d55d418d15b343f2caf0db5bfde9be3a13389f316a0f736c44f5926105b792019061101e565b60405180910390a250565b6001602081905260009182526040909120805491810180546001600160a01b03909316926105ef90610e65565b80601f016020809104026020016040519081016040528092919081815260200182805461061b90610e65565b80156106685780601f1061063d57610100808354040283529160200191610668565b820191906000526020600020905b81548152906001019060200180831161064b57829003601f168201915b50505050509080600201805461067d90610e65565b80601f01602080910402602001604051908101604052809291908181526020018280546106a990610e65565b80156106f65780601f106106cb576101008083540402835291602001916106f6565b820191906000526020600020905b8154815290600101906020018083116106d957829003601f168201915b505050506003830154600490930154919260ff8082169361010090920416915086565b6060600280548060200260200160405190810160405280929190818152602001828054801561077157602002820191906000526020600020905b81546001600160a01b03168152600190910190602001808311610753575b5050505050905090565b6002818154811061078b57600080fd5b6000918252602090912001546001600160a01b0316905081565b6001600160a01b038082166000908152600160208181526040808420815160c08101909252805490951681529184018054606095869594859485948594929392918401916107f290610e65565b80601f016020809104026020016040519081016040528092919081815260200182805461081e90610e65565b801561086b5780601f106108405761010080835404028352916020019161086b565b820191906000526020600020905b81548152906001019060200180831161084e57829003601f168201915b5050505050815260200160028201805461088490610e65565b80601f01602080910402602001604051908101604052809291908181526020018280546108b090610e65565b80156108fd5780601f106108d2576101008083540402835291602001916108fd565b820191906000526020600020905b8154815290600101906020018083116108e057829003601f168201915b5050509183525050600382015460ff80821615156020808501919091526101009092041615156040808401919091526004909301546060928301528301519183015190830151608084015160a090940151929b919a509850919650945092505050565b6000546001600160a01b0316331461098a5760405162461bcd60e51b815260040161022190610fdc565b6001600160a01b038116600090815260016020526040902060030154610100900460ff166109fa5760405162461bcd60e51b815260206004820152601a60248201527f4b5943207265717565737420646f6573206e6f742065786973740000000000006044820152606401610221565b6001600160a01b0381166000908152600160208190526040822080546001600160a01b03191681559190610a3090830182610b94565b610a3e600283016000610b94565b5060038101805461ffff19169055600060049091018190555b600254811015610b5c57816001600160a01b031660028281548110610a7e57610a7e6110a9565b6000918252602090912001546001600160a01b031603610b4a5760028054610aa8906001906110d5565b81548110610ab857610ab86110a9565b600091825260209091200154600280546001600160a01b039092169183908110610ae457610ae46110a9565b9060005260206000200160006101000a8154816001600160a01b0302191690836001600160a01b031602179055506002805480610b2357610b236110ee565b600082815260209020810160001990810180546001600160a01b0319169055019055610b5c565b80610b5481611104565b915050610a57565b506040516001600160a01b038216907fa34e10975b6442017fb6ca6ba35e6d671924c59f52737e20ef2362a5ca2c275190600090a250565b508054610ba090610e65565b6000825580601f10610bb0575050565b601f016020900490600052602060002090810190610bce9190610bd1565b50565b5b80821115610be65760008155600101610bd2565b5090565b634e487b7160e01b600052604160045260246000fd5b600082601f830112610c1157600080fd5b813567ffffffffffffffff80821115610c2c57610c2c610bea565b604051601f8301601f19908116603f01168101908282118183101715610c5457610c54610bea565b81604052838152866020858801011115610c6d57600080fd5b836020870160208301376000602085830101528094505050505092915050565b60008060408385031215610ca057600080fd5b823567ffffffffffffffff80821115610cb857600080fd5b610cc486838701610c00565b93506020850135915080821115610cda57600080fd5b50610ce785828601610c00565b9150509250929050565b600060208284031215610d0357600080fd5b81356001600160a01b0381168114610d1a57600080fd5b9392505050565b6000815180845260005b81811015610d4757602081850181015186830182015201610d2b565b506000602082860101526020601f19601f83011685010191505092915050565b6001600160a01b038716815260c060208201819052600090610d8b90830188610d21565b8281036040840152610d9d8188610d21565b95151560608401525050911515608083015260a0909101529392505050565b6020808252825182820181905260009190848201906040850190845b81811015610dfd5783516001600160a01b031683529284019291840191600101610dd8565b50909695505050505050565b600060208284031215610e1b57600080fd5b5035919050565b60a081526000610e3560a0830188610d21565b8281036020840152610e478188610d21565b95151560408401525050911515606083015260809091015292915050565b600181811c90821680610e7957607f821691505b602082108103610e9957634e487b7160e01b600052602260045260246000fd5b50919050565b601f821115610ee957600081815260208120601f850160051c81016020861015610ec65750805b601f850160051c820191505b81811015610ee557828155600101610ed2565b5050505b505050565b815167ffffffffffffffff811115610f0857610f08610bea565b610f1c81610f168454610e65565b84610e9f565b602080601f831160018114610f515760008415610f395750858301515b600019600386901b1c1916600185901b178555610ee5565b600085815260208120601f198616915b82811015610f8057888601518255948401946001909101908401610f61565b5085821015610f9e5787850151600019600388901b60f8161c191681555b5050505050600190811b01905550565b604081526000610fc16040830185610d21565b8281036020840152610fd38185610d21565b95945050505050565b60208082526022908201527f4f6e6c792061646d696e2063616e20706572666f726d2074686973206163746960408201526137b760f11b606082015260800190565b600060208083526000845461103281610e65565b80848701526040600180841660008114611053576001811461106d5761109b565b60ff1985168984015283151560051b89018301955061109b565b896000528660002060005b858110156110935781548b8201860152908301908801611078565b8a0184019650505b509398975050505050505050565b634e487b7160e01b600052603260045260246000fd5b634e487b7160e01b600052601160045260246000fd5b818103818111156110e8576110e86110bf565b92915050565b634e487b7160e01b600052603160045260246000fd5b600060018201611116576111166110bf565b506001019056fea264697066735822122032e8b5cfda94fd64cf44f0e144080c35cacad0eea9aced620bdba2fe982c44e064736f6c63430008130033",
  "linkReferences": {},
  "deployedLinkReferences": {}
}